:020000040000FA
:100000000C9462000C948A000C948A000C948A0070
:100010000C948A000C948A000C948A000C948A0038
:100020000C948A000C948A000C948A000C948A0028
:100030000C948A000C948A000C948A000C948A0018
:100040000C945F050C948A000C94CF050C94A905C0
:100050000C948A000C948A000C948A000C948A00F8
:100060000C948A000C948A000000000024002700F1
:100070002A0000000000250028002B0000000008D6
:10008000000201000003040700000000000000005F
:1000900000000000230026002900040404040404D6
:1000A0000404020202020202030303030303010227
:1000B00004081020408001020408102001020408F6
:1000C0001020010611241FBECFEFD8E0DEBFCDBF48
:1000D00011E0A0E0B1E0EEE4F4E102C005900D9281
:1000E000AA36B107D9F722E0AAE6B1E001C01D9215
:1000F000AB33B207E1F710E0C2E6D0E004C02197CD
:10010000FE010E941F0AC136D107C9F70E946D0681
:100110000C94250A0C940000CF92DF92EF92FF928C
:10012000CF93DF93B0911702A0E08111AB2F8091A4
:10013000180290E0880F991FAC0140575F4FC090A4
:100140001D02D0901E02E0901F02F090200230E0CD
:1001500020E0FA01C591D491E881B90190E080E0F6
:10016000EB23EA130AC02F5F3F4F6C157D058E0508
:100170009F0578F36FEF7FEFCB01DF91CF91FF9079
:10018000EF90DF90CF900895FC01538D448D252F83
:1001900030E0842F90E0821B930B541710F0CF9621
:1001A000089501970895FC01918D828D981761F053
:1001B000A28DAE0FBF2FB11D5D968C91928D9F5F6A
:1001C0009F73928F90E008958FEF9FEF0895FC0149
:1001D000918D828D981731F0828DE80FF11D858DFC
:1001E00090E008958FEF9FEF0895FC01918D228D8F
:1001F000892F90E0805C9F4F821B91098F73992714
:100200000895FC01A48DA80FB92FB11DA35ABF4FAB
:100210002C91848D90E001968F739927848FA68905
:10022000B7892C93A089B1898C91837080648C9359
:10023000938D848D981306C00288F389E02D808108
:100240008F7D80830895EF92FF920F931F93CF933A
:10025000DF93EC0181E0888F9B8D8C8D98131AC001
:10026000E889F989808185FF15C09FB7F894EE89E8
:10027000FF896083E889F989808183708064808345
:100280009FBF81E090E0DF91CF911F910F91FF9090
:10029000EF900895F62E0B8D10E00F5F1F4F0F7338
:1002A0001127E02E8C8D8E110CC00FB607FCFACFF3
:1002B000E889F989808185FFF5CFCE010E9401018F
:1002C000F1CFEB8DEC0FFD2FF11DE35AFF4FF082C4
:1002D0009FB7F8940B8FEA89FB8980818062CFCF2A
:1002E000CF93DF93EC01888D8823B9F0AA89BB896D
:1002F000E889F9898C9185FD03C0808186FD0DC058
:100300000FB607FCF7CF8C9185FFF2CF808185FF78
:10031000EDCFCE010E940101E9CFDF91CF91089589
:1003200083E791E00E94F50021E0892B09F420E0A9
:10033000822F089580E090E0892B29F00E9490019F
:1003400081110C940000089590E0FC01E458FF4FE7
:100350002491FC01E255FF4F3491FC01E656FF4F1A
:10036000E491EE23C9F0222339F0233001F1A8F4FF
:10037000213019F1223029F1F0E0EE0FFF1FEE5885
:10038000FF4FA591B4918FB7F894EC91611126C0FD
:1003900030953E233C938FBF08952730A9F0283035
:1003A000C9F0243049F7809180008F7D03C080918F
:1003B00080008F7780938000DFCF84B58F7784BDF6
:1003C000DBCF84B58F7DFBCF8091B0008F7780939A
:1003D000B000D2CF8091B0008F7DF9CF3E2BDACF25
:1003E000CF93DF9390E0FC01E255FF4F24918656B6
:1003F0009F4FFC0184918823D1F090E0880F991FD2
:10040000FC01E859FF4FA591B491FC01EE58FF4F54
:10041000C591D491623071F49FB7F8943C91822FCA
:10042000809583238C93E8812E2B28839FBFDF91B7
:10043000CF9108958FB7F894EC912E2B2C938FBF0A
:10044000F6CF3FB7F89480916B0190916C01A09129
:100450006D01B0916E0126B5A89B05C02F3F19F024
:100460000196A11DB11D3FBFBA2FA92F982F882734
:10047000BC01CD01620F711D811D911D42E0660F0F
:10048000771F881F991F4A95D1F708958F929F92E1
:10049000AF92BF92CF92DF92EF92FF924B015C013D
:1004A0000E9421026B017C010E9421026C197D09CE
:1004B0008E099F09683E734081059105A8F321E0EC
:1004C000821A9108A108B10888EEC80E83E0D81EF0
:1004D000E11CF11C81149104A104B10429F7FF90DF
:1004E000EF90DF90CF90BF90AF909F908F90089546
:1004F000CF92DF92EF92FF920F931F93CF93DF93F0
:10050000CDB7DEB7C054D1400FB6F894DEBF0FBEF2
:10051000CDBF2FB7F89480916F0190917001A09199
:100520007101B09172012FBF4091190250911A02CE
:1005300060911B0270911C028C019D01041B150B24
:10054000260B370BB901A801403D574061057105E5
:1005500090F480912102C05CDE4F0FB6F894DEBFAC
:100560000FBECDBFDF91CF911F910F91FF90EF9004
:10057000DF90CF9008958093190290931A02A09370
:100580001B02B0931C0210921402109213021092DC
:100590001202109211021092100262E08091150274
:1005A0000E94F00161E070E080E090E00E9446026D
:1005B00061E0809115020E94F00160E080911502D7
:1005C0000E94A401809116028551823020F58BE2B1
:1005D00091E10197F1F762E0809115020E94F0012C
:1005E0008091220290E08230910538F0880F991FA7
:1005F000880F991F05970197F1F7F89480E00E9402
:100600008C006F3F7F4F8F4F9F4F61F410922102FC
:10061000789480E0A0CF64E170E080E090E00E94F8
:100620004602D9CF81E00E948C006F3F7F4F8F4FF1
:100630009F4F61F38E010F5F1F4F6E018FEBC81A42
:100640008EEFD80A780180E00E948C00F701608369
:1006500071838283938381E00E948C00F70164831D
:10066000758386839783F8E0EF0EF11CEC14FD048C
:1006700051F7789430E020E0F801C080D180E2802A
:10068000F3804481558166817781FFEFCF16DF06C5
:10069000EF06FF0631F04F3F8FEF580768077807E6
:1006A00019F410922102B5CFF90183E0F595E79591
:1006B0008A95E1F7E05FFD4F8081880FC416D5066B
:1006C000E606F70610F180832F5F3F4F085F1F4F4C
:1006D0002832310589F64091140220911002809150
:1006E0001102280F3327331F80911202280F311D6A
:1006F00080911302820F932F911D99274817190695
:1007000081F681E08093210226CF8160DCCFAF9219
:10071000BF92CF92DF92EF92FF920F931F93CF93EE
:10072000DF936C017B018B01040F151FEB015E0150
:10073000AE18BF08C017D10759F06991D601ED91E5
:10074000FC910190F081E02DC6010995892B79F784
:10075000C501DF91CF911F910F91FF90EF90DF9036
:10076000CF90BF90AF900895089590E080E00895F5
:10077000FC0101900020E9F73197AF01481B590BAC
:10078000BC0183E292E00C9487038F929F92AF9218
:10079000BF920F931F93CF93DF93CDB7DEB7A1978F
:1007A0000FB6F894DEBF0FBECDBF19A2423008F4D9
:1007B0004AE08E010F5D1F4F842E912CB12CA12C8D
:1007C000A50194010E94FD09E62FB901CA01EA3092
:1007D000F4F4E05DD801EE938D01232B242B252B1F
:1007E00079F790E080E0109719F0CD010E94B803EE
:1007F000A1960FB6F894DEBF0FBECDBFDF91CF91AB
:100800001F910F91BF90AF909F908F900895E95CDA
:10081000E1CFCF93DF93EC0160E08E810E94A401D1
:1008200061E08E810E94A40160E08E810E94A4019B
:100830008BE891E00197F1F7DF91CF910895CF9286
:10084000DF92EF92FF920F931F93CF93DF936C0190
:100850007C0187E0E80EF11CD0E0C0E0062F10E03C
:10086000B8010C2E02C0759567950A94E2F7617085
:10087000F70181917F010E94A4012196C430D10526
:1008800079F7C601DF91CF911F910F91FF90EF9003
:10089000DF90CF900C940904CF92DF92EF92FF92F9
:1008A0000F931F93CF93DF93EC01F62E642F8C816F
:1008B0000E94A4018D818F3F19F060E00E94A40185
:1008C0000F2D10E08F8584FF25C06E0187E0C80ED4
:1008D000D11CF12CE12CB8010E2C02C07595679546
:1008E0000A94E2F76170F60181916F010E94A40100
:1008F000FFEFEF1AFF0A88E0E816F10461F7CE0176
:10090000DF91CF911F910F91FF90EF90DF90CF90EB
:100910000C940904B80184E0759567958A95E1F710
:10092000CE010E941F046F2DCE01DF91CF911F9148
:100930000F91FF90EF90DF90CF900C941F0440E058
:10094000682F83E292E00C944C04CF93DF938230C3
:1009500029F490913202986090933202809336028B
:100960001092370280E48093380280E1809339024C
:1009700080E580933A0261E0809127020E94F001B5
:10098000809128028F3F19F061E00E94F00161E040
:10099000809129020E94F001C3E2D2E09E0123521D
:1009A00032408091320284FD0BC084E090E02196B9
:1009B0002817390744F461E08E810E94F001EECFE0
:1009C00088E090E0F4CF8BE39DE00197F1F760E0E1
:1009D000809127020E94A40160E0809129020E9478
:1009E000A401809128028F3F19F060E00E94A401C9
:1009F0008091320284FD39C063E083E292E00E947C
:100A00001F04CBE4D6E4CE010197F1F763E083E263
:100A100092E00E941F042197F1F763E083E292E0E5
:100A20000E941F0483E592E00197F1F762E083E200
:100A300092E00E941F048091320280620E949F0413
:100A400084E0809333028CE00E949F0481E00E9446
:100A50009F048BE39FE10197F1F782E080933402DA
:100A600086E0DF91CF910C949F0480620E949F04E6
:100A70008BE496E40197F1F78091320280620E9444
:100A80009F0483E592E00197F1F780913202806242
:100A90000E949F04D0CF90913602891710F08FEFFB
:100AA000890FE82FF0E0ED5DFD4F848980680C949C
:100AB0009F0441E00E944C0481E090E008951F9261
:100AC0000F920FB60F9211242F933F938F939F9302
:100AD000AF93BF9380916F0190917001A0917101CC
:100AE000B091720130916A0123E0230F2D3758F540
:100AF0000196A11DB11D20936A0180936F0190930F
:100B00007001A0937101B093720180916B0190917B
:100B10006C01A0916D01B0916E010196A11DB11DF6
:100B200080936B0190936C01A0936D01B0936E0163
:100B3000BF91AF919F918F913F912F910F900FBED9
:100B40000F901F90189526E8230F0296A11DB11D46
:100B5000D2CF1F920F920FB60F9211242F933F9373
:100B60004F935F936F937F938F939F93AF93BF93B5
:100B7000EF93FF9383E791E00E940101FF91EF91D2
:100B8000BF91AF919F918F917F916F915F914F91A5
:100B90003F912F910F900FBE0F901F9018951F92AD
:100BA0000F920FB60F9211242F938F939F93EF9371
:100BB000FF93E0918301F09184018081E0918901AC
:100BC000F0918A0182FD1BC0908180918C018F5F22
:100BD0008F7320918D01821741F0E0918C01F0E03C
:100BE000ED58FE4F958F80938C01FF91EF919F916F
:100BF0008F912F910F900FBE0F901F9018958081AD
:100C0000F4CFCF93E3E7F1E01382128288EE93E012
:100C1000A0E0B0E084839583A683B78384E091E06D
:100C20009183808385EC90E09587848784EC90E0C5
:100C30009787868780EC90E0918B808B81EC90E0A9
:100C4000938B828B82EC90E0958B848B86EC90E08A
:100C5000978B868B118E128E138E148EE3E2F2E048
:100C60001382128286E191E09183808387E08483FE
:100C70008FEF858388E0868389E087838AE0808799
:100C8000CBE0C1878CE08287138614861586168692
:100C9000178681E00E94A504A0E1B2E082E01596EB
:100CA0008C9315971696CC931697E0EBF0E0E491B1
:100CB0001796EC931797ECE9F0E0E4911896EC9313
:100CC000189740E85EE360E070E01D964D935D93F9
:100CD0006D937C935097CF910895789484B58260FA
:100CE00084BD84B5816084BD85B5826085BD85B5D0
:100CF000816085BD80916E00816080936E0010924E
:100D000081008091810082608093810080918100C8
:100D10008160809381008091800081608093800059
:100D20008091B10084608093B1008091B0008160B7
:100D30008093B00080917A00846080937A008091E3
:100D40007A00826080937A0080917A00816080933B
:100D50007A0080917A00806880937A001092C100B6
:100D600082E00E94A50480E00E944B058EE191E0A4
:100D70000E94B80381E00E944B058BE291E00E9443
:100D8000B80360ED77E080E090E00E94460281E0E9
:100D90000E949F048BE39FE10197F1F762E080914D
:100DA00015020E94F0012FB7F89480916F01909185
:100DB0007001A0917101B09172012FBF805D9740C9
:100DC000A109B1098093190290931A02A0931B0202
:100DD000B0931C0287E380932202C0E0D0E00E941F
:100DE0007802882309F45AC0809116028C3009F4E5
:100DF0006EC048F48B3001F1C12CD12C80ECE82E70
:100E00008FE7F82E43C085518230B0F7109112025F
:100E1000612F70E0762F662766277F778091130217
:100E2000682B90E080E00E94D4082DEC3CEC4CEC68
:100E30005DE30E948B0967C06091120270E090E050
:100E400080E00E94D4086B017C011091130217FF0F
:100E50000AC0AC019B0160E070E080E89FEB0E945B
:100E600033086B017C011F70612F70E090E080E01F
:100E70000E94D6082DEC3CEC4CEC5DE30E948B0903
:100E8000A70196010E9434086B017C01A70196011D
:100E9000C701B6010E94F8098823F1F180E00E94A1
:100EA0004B058BE391E00E94B80381E00E944B0563
:100EB00089E491E00E94B803209709F490CF0E9442
:100EC0009001882309F48BCF0E94000088CF1091F5
:100ED0001202612F70E090E080E00E94D4086B0164
:100EE0007C01609113026F7070E090E080E00E94DE
:100EF000D6082DEC3CEC4CEC5DE30E948B09A7017D
:100F000096010E9434086B017C0117FFBFCFF7FAEE
:100F1000F094F7F8F094BACF80E00E944B0587E593
:100F200091E00E94B80346015701E894B7F82FEF0B
:100F30003FEF4FE75FE7C501B4010E94F809811157
:100F400019C02FEF3FEF4FE75FE7C501B4010E94E3
:100F5000A00818167CF48EE591E00E94B80386E69E
:100F600091E00E94B80368EE73E080E090E00E9498
:100F70004602A2CF2FEF3FEF4FE75FE4C701B60174
:100F80000E94860918161CF482E691E0E6CF2FEF46
:100F90003FEF4FE75FECC701B6010E94A00887FD55
:100FA000F3CF20E030E0A901C701B6010E94A008FC
:100FB00087FF0AC041E06DE283E292E00E944C04A8
:100FC000F7FAF094F7F8F0942AE037ED43EA5BE3A0
:100FD000C701B6010E9434084B015C010E94A508BC
:100FE0006B017C010E94D4089B01AC01C501B401D6
:100FF0000E9433084B015C014AE0C701B6010E9420
:10100000C50341E06EE283E292E00E944C0420E0DE
:1010100030E040E251E4C501B4010E948B094B016C
:101020005C010E94A5086B01F12CE12C4AE0C7018C
:10103000B6010E94C503C701B6010E94D4089B01F6
:10104000AC01C501B4010E94330820E030E040E269
:1010500051E40E948B090E94A50890E080E04AE0DC
:101060000E94C5037CCF5058BB27AA270E944B087B
:101070000C944C090E943E0938F00E94450920F06A
:1010800039F49F3F19F426F40C943B090EF4E095D3
:10109000E7FB0C943509E92F0E945D0958F3BA1754
:1010A000620773078407950720F079F4A6F50C947E
:1010B0007F090EF4E0950B2EBA2FA02D0B01B9017C
:1010C00090010C01CA01A0011124FF27591B99F0BE
:1010D000593F50F4503E68F11A16F040A22F232FCA
:1010E000342F4427585FF3CF469537952795A7951A
:1010F000F0405395C9F77EF41F16BA0B620B730BC1
:10110000840BBAF09150A1F0FF0FBB1F661F771F31
:10111000881FC2F70EC0BA0F621F731F841F48F4E6
:10112000879577956795B795F7959E3F08F0B0CF6F
:101130009395880F08F09927EE0F97958795089556
:101140000E94110908F481E008950E94650988F061
:101150009F5798F0B92F9927B751B0F0E1F0660F7B
:10116000771F881F991F1AF0BA95C9F714C0B130BC
:1011700091F00E947F09B1E008950C947F09672FD8
:10118000782F8827B85F39F0B93FCCF386957795EB
:101190006795B395D9F73EF49095809570956195D4
:1011A0007F4F8F4F9F4F0895E89409C097FB3EF4FF
:1011B00090958095709561957F4F8F4F9F4F9923A4
:1011C000A9F0F92F96E9BB279395F6958795779522
:1011D0006795B795F111F8CFFAF4BB0F11F460FFE2
:1011E0001BC06F5F7F4F8F4F9F4F16C0882311F03A
:1011F00096E911C0772321F09EE8872F762F05C04E
:10120000662371F096E8862F70E060E02AF09A95E8
:10121000660F771F881FDAF7880F9695879597F9DD
:101220000895990F0008550FAA0BE0E8FEEF161677
:101230001706E807F907C0F012161306E407F507CA
:1012400098F0621B730B840B950B39F40A2661F03E
:10125000232B242B252B21F408950A2609F4A140E1
:10126000A6958FEF811D811D089597F99F6780E8EE
:1012700070E060E008959FEF80EC089500240A94E8
:101280001616170618060906089500240A94121661
:101290001306140605060895092E0394000C11F494
:1012A000882352F0BB0F40F4BF2B11F460FF04C041
:1012B0006F5F7F4F8F4F9F4F089557FD9058440F9A
:1012C000551F59F05F3F71F04795880F97FB991FA5
:1012D00061F09F3F79F08795089512161306140662
:1012E000551FF2CF4695F1DF08C0161617061806EF
:1012F000991FF1CF86957105610508940895E894CA
:10130000BB2766277727CB0197F908950E9411091B
:1013100008F48FEF08950E949E090C944C090E94D6
:101320003E0938F00E94450920F0952311F00C94F5
:1013300035090C943B0911240C9480090E945D0925
:1013400070F3959FC1F3950F50E0551F629FF00118
:10135000729FBB27F00DB11D639FAA27F00DB11D31
:10136000AA1F649F6627B00DA11D661F829F2227BA
:10137000B00DA11D621F739FB00DA11D621F839F41
:10138000A00D611D221F749F3327A00D611D231F17
:10139000849F600D211D822F762F6A2F11249F5765
:1013A00050409AF0F1F088234AF0EE0FFF1FBB1F68
:1013B000661F771F881F91505040A9F79E3F510527
:1013C00080F00C9435090C9480095F3FE4F3983E5B
:1013D000D4F3869577956795B795F795E7959F5FD1
:1013E000C1F7FE2B880F911D9695879597F9089563
:1013F0000E941109880B990B0895A1E21A2EAA1BCD
:10140000BB1BFD010DC0AA1FBB1FEE1FFF1FA217B4
:10141000B307E407F50720F0A21BB30BE40BF50BB1
:10142000661F771F881F991F1A9469F7609570953A
:10143000809590959B01AC01BD01CF010895EE0F01
:10144000FF1F0590F491E02D0994F894FFCF000060
:10145000000023018703C4007001F500D300E700FA
:101460000000000059058703B503B40354656D708F
:10147000204D6F6E69746F7200496E697469616C9A
:10148000697A696E672E2E2E0053656E736F722017
:101490004572726F722100436865636B20576972F1
:1014A000696E67210054656D703A2000696E6600B0
:0814B0006F7666002043000086
:107E0000112484B714BE81FFF0D085E080938100F7
:107E100082E08093C00088E18093C10086E0809377
:107E2000C20080E18093C4008EE0C9D0259A86E02C
:107E300020E33CEF91E0309385002093840096BBD3
:107E4000B09BFECF1D9AA8958150A9F7CC24DD24C4
:107E500088248394B5E0AB2EA1E19A2EF3E0BF2EE7
:107E6000A2D0813461F49FD0082FAFD0023811F036
:107E7000013811F484E001C083E08DD089C08234E0
:107E800011F484E103C0853419F485E0A6D080C0E4
:107E9000853579F488D0E82EFF2485D0082F10E0AE
:107EA000102F00270E291F29000F111F8ED06801E7
:107EB0006FC0863521F484E090D080E0DECF843638
:107EC00009F040C070D06FD0082F6DD080E0C81688
:107ED00080E7D80618F4F601B7BEE895C0E0D1E017
:107EE00062D089930C17E1F7F0E0CF16F0E7DF06D8
:107EF00018F0F601B7BEE89568D007B600FCFDCFD4
:107F0000A601A0E0B1E02C9130E011968C91119780
:107F100090E0982F8827822B932B1296FA010C0160
:107F200087BEE89511244E5F5F4FF1E0A038BF0790
:107F300051F7F601A7BEE89507B600FCFDCF97BE46
:107F4000E89526C08437B1F42ED02DD0F82E2BD052
:107F50003CD0F601EF2C8F010F5F1F4F84911BD097
:107F6000EA94F801C1F70894C11CD11CFA94CF0C13
:107F7000D11C0EC0853739F428D08EE10CD085E9AC
:107F80000AD08FE07ACF813511F488E018D01DD067
:107F900080E101D065CF982F8091C00085FFFCCF94
:107FA0009093C60008958091C00087FFFCCF809118
:107FB000C00084FD01C0A8958091C6000895E0E648
:107FC000F0E098E1908380830895EDDF803219F02E
:107FD00088E0F5DFFFCF84E1DECF1F93182FE3DFCA
:107FE0001150E9F7F2DF1F91089580E0E8DFEE27F6
:047FF000FF270994CA
:027FFE00040479
:00000001FF
